:100000000C9463000C948B000C948B000C948B006C
:100010000C948B000C948B000C948B000C948B0034
:100020000C948B000C948B000C948B000C948B0024
:100030000C948B000C948B000C948B000C948B0014
:100040000C94D4070C948B000C9446090C948B00F0
:100050000C948B000C948B000C948B000C948B00F4
:100060000C94DE020C948B0000000000240027009A
:100070002A0000000000250028002B0000000000DE
:1000800023002600290004040404040404040202DA
:100090000202020203030303030301020408102007
:1000A0004080010204081020010204081020000012
:1000B0000007000201000003040600000000000029
:1000C0000000D5018F0A11241FBECFEFD8E0DEBF9C
:1000D000CDBF11E0A0E0B1E0E0E8F9E102C0059099
:1000E0000D92AC36B107D9F712E0ACE6B1E001C031
:1000F0001D92AB34B107E1F710E0C6ECD0E004C0CC
:100100002297FE010E94BA0CC23CD107C9F70E9497
:10011000CD070C94BE0C0C9400000F931F93CF934B
:10012000DF93689F8001699F100D789F100D112447
:10013000C8010E94A900EC01009729F060E070E07E
:10014000A8010E94AB01CE01DF91CF911F910F91C9
:100150000895CF93DF93BC018230910510F462E0E3
:1001600070E0A0914902B0914A02ED01E0E0F0E0B8
:1001700040E050E021C0888199818617970769F493
:100180008A819B81309719F09383828304C0909376
:100190004A0280934902FE0134C06817790738F497
:1001A0004115510519F08417950708F4AC01FE01BB
:1001B0008A819B819C01E9012097E9F6411551054F
:1001C000A9F1CA01861B970B049708F4BA01E0E075
:1001D000F0E02AC08D919C91119784179507F9F44E
:1001E0006417750781F412968D919C91139730973F
:1001F00019F09383828304C090934A02809349024A
:10020000FD0132964CC0CA01861B970BFD01E80F19
:10021000F91F6193719302978D939C9340C0FD01E8
:10022000828193819C01D9011097A1F680914702A8
:1002300090914802892B41F480913E0190913F01B9
:1002400090934802809347024091400150914101B0
:100250004115510541F44DB75EB780913C01909135
:100260003D01481B590B2091470230914802CA01B9
:10027000821B930B8617970780F0AB014E5F5F4F91
:100280008417950750F0420F531F50934802409334
:100290004702F9016193719302C0E0E0F0E0CF0101
:1002A000DF91CF910895CF93DF93009709F450C069
:1002B000EC0122971B821A82A0914902B0914A0256
:1002C000109709F140E050E0AC17BD0708F1BB837F
:1002D000AA83FE0121913191E20FF31FAE17BF07F0
:1002E00079F48D919C911197280F391F2E5F3F4F04
:1002F0003983288312968D919C9113979B838A83CF
:100300004115510571F4D0934A02C093490220C0AF
:1003100012968D919C911397AD01009711F0DC011D
:10032000D3CFFA01D383C28321913191E20FF31F1E
:10033000CE17DF0769F488819981280F391F2E5F56
:100340003F4FFA01318320838A819B81938382838B
:10035000DF91CF910895DC0101C06D934150504071
:10036000E0F7089581E08093750160937001109229
:10037000730110927401089580916F0190916E0144
:10038000891B089590916E0180916F01981710F06C
:1003900080E00895E0916C01F0916D01E90FF11D8D
:1003A00080819F5F90936E0108950895DF93CF93AE
:1003B0000F92CDB7DEB76983809175018823A9F0CC
:1003C000809174018032B0F480917301E0917101E9
:1003D000F0917201E80FF11D6083809173018F5FCE
:1003E000809373018093740105C0CE01019661E092
:1003F0000E94C1020F90CF91DF9108950E94D60113
:100400000895609171017091720180917001409125
:10041000740121E00E947C02109273011092740119
:10042000109275010895862F60916C0170916D0195
:10043000413208F040E20E94440210926E01809323
:100440006F0108950E941302089580E290E061E038
:1004500070E00E948D0080936C0190936D0110926A
:100460006E0110926F0180E290E061E070E00E9406
:100470008D0080937101909372011092730110921C
:1004800074010E9460040895982F413210F040E0FA
:1004900031C0809177018823E1F781E08093770173
:1004A0008FEF8093880110927F014150409380012B
:1004B0004F5F990F91609093780185EE8093BC0017
:1004C000809177018130E1F380917F01841710F4EE
:1004D00040917F01A0917D01B0917E0120E030E04C
:1004E00007C0FB01E20FF31F8D9180832F5F3F4F09
:1004F0002417B8F3842F08951F93582F122F4132D9
:1005000010F081E03CC0809177018823E1F782E020
:10051000809377018FEF8093880110927F01409341
:100520008001A0917D01B0917E01FB0102C081910B
:100530008D938E2F861B8417D0F3852F90E0880F24
:10054000991F8093780185EE8093BC00112321F0E0
:10055000809177018230E1F3809188018F3F11F41F
:1005600080E00DC080918801803211F482E007C0E4
:1005700080918801803311F084E001C083E01F91F5
:100580000895482F613210F081E00895809177013D
:10059000843011F082E0089560938401A09181017C
:1005A000B0918201842F9C01F90102C081918D9349
:1005B0008E2F841B8617D0F380E008951F920F9230
:1005C0000FB60F9211242F933F934F935F936F9326
:1005D0007F938F939F93AF93BF93EF93FF938091FC
:1005E000B90090E0887F90708036910509F4E2C0F0
:1005F00081369105CCF58832910509F47BC08932AA
:100600009105B4F48031910509F46FC081319105F1
:100610003CF4009709F438C1089709F040C165C05F
:100620008831910509F466C0809709F038C17FC010
:100630008034910509F4A3C08134910544F48033DA
:10064000910509F47FC0C89709F029C186C080359B
:10065000910509F486C08835910509F495C0883460
:10066000910509F01CC19EC08839910509F404C1A7
:1006700089399105ECF48837910509F49BC08937D5
:1006800091054CF48836910509F494C080379105A2
:1006900009F005C18FC08838910509F4EDC0803993
:1006A000910509F48DC08038910509F0F8C088C023
:1006B000803B910509F4B2C0813B91054CF4803A2E
:1006C000910509F491C0883A910509F0E8C0A6C0E7
:1006D000803C910509F4D4C0883C910509F4D0C050
:1006E000883B910509F0DBC0B1C08091780180930F
:1006F000BB00C0C090917F0180918001981778F471
:1007000090917F01E0917D01F0917E01E90FF11D53
:1007100080818093BB009F5F90937F01ABC085ED8C
:100720008093BC008091BC0084FDFCCFB6C080E209
:100730008093880185ED8093BC008091BC0084FD8E
:10074000FCCFABC080E38093880185ED8093BC0033
:100750008091BC0084FDFCCFA0C088E38093880119
:100760008FC080917F019091BB00E0917D01F0915D
:100770007E01E80FF11D90838F5F80937F01909140
:100780007F018091800174C080917F019091BB00B6
:10079000E0917D01F0917E01E80FF11D90838F5F64
:1007A00080937F0185ED8093BC008091BC0084FD27
:1007B000FCCF73C083E080937701109287015AC009
:1007C00080918701803208F057C080918701909115
:1007D000BB00E0918501F0918601E80FF11D908347
:1007E0008F5F8093870146C080918701803248F4F3
:1007F00080918701E0918501F0918601E80FF11D5C
:10080000108260918701E0917B01F0917C018091E1
:1008100085019091860170E0099532C084E0809353
:1008200077011092830110928401E0917901F09197
:100830007A01099580918401882341F481E08093B5
:100840008401E0918101F0918201108290918301F5
:10085000E0918101F0918201E90FF11D8081809387
:10086000BB009F5F909383019091830180918401ED
:10087000981710F485EC01C085E88093BC000FC088
:1008800085EC8093BC0009C01092880185ED8093AF
:10089000BC008091BC0084FDFCCF10927701FF91D9
:1008A000EF91BF91AF919F918F917F916F915F91E8
:1008B0004F913F912F910F900FBE0F901F90189561
:1008C00010927701449A459AE9EBF0E080818E7F9F
:1008D000808380818D7F808388E48093B80085E465
:1008E0008093BC0080E290E061E070E00E948D00A7
:1008F00080937D0190937E0180E290E061E070E062
:100900000E948D00809381019093820180E290E0AB
:1009100061E070E00E948D008093850190938601D4
:1009200008958091890180939301109294018091A0
:100930008A01809395011092960180918B01482F36
:1009400050E0440F551F440F551F5093980140939A
:10095000970180918C01682F70E0660F771F660FFA
:10096000771F70939A016093990180918D01E82F10
:10097000F0E0EE0FFF1FEE0FFF1FF0939C01E093DE
:100980009B0181E090E09093900180938F01909380
:1009900092018093910130918E01232F30FF04C08A
:1009A0001092900110928F0121FF04C010929201C9
:1009B0001092910122FF06C04E5F5F4F5093980145
:1009C0004093970123FF09C080919701909198016E
:1009D0000196909398018093970124FF06C06E5F63
:1009E0007F4F70939A016093990125FF09C0809110
:1009F000990190919A01019690939A01809399019F
:100A000026FF05C03296F0939C01E0939B0137FFCF
:100A100009C080919B0190919C01019690939C014B
:100A200080939B010895BC0184E392E00E94080B2F
:100A30000895EF92FF920F931F9304E312E0409109
:100A4000950150919601662757FD6095762FC80154
:100A50002AE030E00E94D70B30E0E32E31E0F32EA5
:100A6000C801B7010E94080B40919D0150919E0161
:100A7000662757FD6095762FC8012AE030E00E9476
:100A8000D70BC801B7010E94080B6091A5017091B6
:100A9000A601C8010E94CF0BC801B7010E94080B34
:100AA0006091540170915501C8010E94CF0BC8019B
:100AB000B7010E94080B6091560170915701C8015F
:100AC0000E94CF0BC801B7010E94080BC80162E069
:100AD00071E00E94080B1F910F91FF90EF90089515
:100AE00080919F019091A0011816190654F48091ED
:100AF000480161E00E94F90880914A0160E00E948B
:100B0000F90880919F019091A00197FF0AC0809100
:100B1000480160E00E94F90880914A0161E00E946A
:100B2000F90860919F017091A001809144010E9499
:100B3000800880919F019091A0011816190654F425
:100B400080914C0161E00E94F90880914E0160E0C3
:100B50000E94F90880919F019091A00197FF0AC01F
:100B600080914C0160E00E94F90880914E0161E0A3
:100B70000E94F9086091A1017091A2018091460143
:100B80000E9480080895AF92BF92CF92DF92EF92B9
:100B9000FF920F931F932091950130919601E09160
:100BA0005E01F0915F012E173F0764F080916001B4
:100BB00090916101821793078CF110929E0110921F
:100BC0009D012CC000D000D0B901882777FD809509
:100BD000982F2091A5013091A601442737FD40951B
:100BE000542F7F010027F7FC0095102FEDB7FEB7BB
:100BF0001182128213821482F1E0AF2EFFEFBF2E1A
:100C0000FFEFCF2EFFEFDF2E0E94EC0B70939E01C3
:100C100060939D010F900F900F900F902091950180
:100C200030919601E0916001F0916101E217F307C4
:100C3000A4F500D000D0B901882777FD8095982FC2
:100C40009F01442737FD4095542FE0905601F090C6
:100C500057010027F7FC0095102FEFEFAE2EB12CB7
:100C6000C12CD12CEDB7FEB7A182B282C382D4824F
:100C7000AA24BB2465010E94EC0B70939E01609333
:100C80009D010F900F900F900F9087E060E00E9401
:100C9000F90888E061E00E94F908209195013091FF
:100CA000960180915601909157018217930734F471
:100CB0008FEF90E090939E0180939D018091A5011C
:100CC0009091A6012817390734F481E09FEF9093A3
:100CD0009E0180939D011F910F91FF90EF90DF90F7
:100CE000CF90BF90AF9008950F931F9306E711E048
:100CF000C80162E570E00E94B201C80160E070E0E6
:100D00000E94FE01C8010E9401021F910F910895E7
:100D10001F93CF93DF9386E791E062E570E046E0B2
:100D200050E00E942202C9E8D1E017E186E791E095
:100D30000E94BC01882361F081E0CF38D80741F0E0
:100D400086E791E00E94C2018127895E8993EECFF8
:100D50000E9491040E94C3050E9474060E94190516
:100D6000DF91CF911F9108958091420161E00E942F
:100D7000F90884E392E065E071E00E94080B84E3E7
:100D800092E062E071E00E94080B809189018093FB
:100D900050011092510188E790E09093A401809354
:100DA000A301909353018093520120918A012093D3
:100DB0005401109255019093A6018093A501909340
:100DC0005701809356013CC080918901282F30E063
:100DD0008091A3019091A4012817390724F430933E
:100DE000A4012093A3018091520190915301821795
:100DF000930724F4309353012093520180918A0188
:100E0000282F30E08091A5019091A601281739077D
:100E100024F43093A6012093A5018091560190916E
:100E200057018217930724F43093570120935601FA
:100E30000E94880664E670E080E090E00E941C0852
:100E40008091910190919201019709F4BDCF809119
:100E500050019091510140915801509159019C01CC
:100E6000241B350B30935B0120935A01840F951F8F
:100E700090935D0180935C018091540190915501A4
:100E80009C01241B350B30935F0120935E01840F7E
:100E9000951F90936101809360018091420160E011
:100EA0000E94F90884E392E06BE171E00E94080B74
:100EB00084E392E062E071E00E94080B08950E94D2
:100EC00088068091910190919201019711F40E94FE
:100ED000B40680919D0190919E019093A001809312
:100EE0009F019093A2018093A1010E94700564E686
:100EF00070E080E090E00E941C0808950F931F931B
:100F000006E711E0C80162E570E00E94B201C80185
:100F100060E470E00E94FE01C80160E070E00E94A1
:100F2000FE01C8010E940102682F84E392E00E9442
:100F3000000B1F910F91089584E392E040E05BE481
:100F400060E070E00E94830986E791E00E9425023C
:100F50000E947E078091440161E00E94D90880913F
:100F6000460161E00E94D9088091480161E00E9439
:100F7000D90880914A0161E00E94D90880914C0112
:100F800061E00E94D90880914E0161E00E94D90879
:100F90008CE291E00E94130508950E9446080E9489
:100FA0009C070E945F07FDCF1F920F920FB60F9212
:100FB00011242F933F938F939F93AF93BF9380916F
:100FC000AB019091AC01A091AD01B091AE01309117
:100FD000AF010196A11DB11D232F2D5F2D3720F0EC
:100FE0002D570196A11DB11D2093AF018093AB0138
:100FF0009093AC01A093AD01B093AE018091A70195
:101000009091A801A091A901B091AA010196A11DFA
:10101000B11D8093A7019093A801A093A901B0935B
:10102000AA01BF91AF919F918F913F912F910F9006
:101030000FBE0F901F901895EF92FF920F931F9382
:101040007B018C018FB7F8944091AB015091AC01BA
:101050006091AD017091AE018FBF2FB7F894809170
:10106000AB019091AC01A091AD01B091AE012FBF49
:10107000841B950BA60BB70BE816F9060A071B078E
:1010800060F71F910F91FF90EF900895789484B5C9
:10109000826084BD84B5816084BD85B5826085BD74
:1010A00085B5816085BDEEE6F0E08081816080835A
:1010B000E1E8F0E0808182608083808181608083CC
:1010C000E0E8F0E0808181608083E1EBF0E0808106
:1010D00084608083E0EBF0E0808181608083EAE7D8
:1010E000F0E0808184608083808182608083808161
:1010F000816080838081806880831092C100089520
:101100001F93CF93DF93182FEB0161E00E94D90862
:10111000E12FF0E0E255FF4F8491833051F480914C
:101120008000806880938000D0938900C0938800FD
:101130003CC0843051F480918000806280938000B4
:10114000D0938B00C0938A0030C0813039F420974F
:1011500029F184B5806884BDC7BD27C0823039F4C9
:101160002097E1F084B5806284BDC8BD1EC0863082
:1011700041F48091B00080688093B000C093B300C8
:1011800014C0873041F48091B00080628093B00039
:10119000C093B4000AC0C038D1051CF4812F60E0B0
:1011A00002C0812F61E00E94F908DF91CF911F9169
:1011B0000895282F30E0C90186569F4FFC01949175
:1011C0002A573F4FF9018491882391F0E82FF0E0EE
:1011D000EE0FFF1FE859FF4FA591B491662329F444
:1011E0008C91909589238C9308958C91892B8C9365
:1011F0000895482F50E0CA0182559F4FFC01249169
:10120000CA0186569F4FFC0194914A575F4FFA01DD
:1012100034913323D1F1222331F1233021F4809111
:1012200080008F7705C0243031F4809180008F7D5D
:101230008093800018C0213019F484B58F7704C0E2
:10124000223021F484B58F7D84BD0DC0263021F479
:101250008091B0008F7705C0273029F48091B000CD
:101260008F7D8093B000E32FF0E0EE0FFF1FEE586C
:10127000FF4FA591B491662329F48C919095892311
:101280008C9308958C91892B8C9308951F920F92C3
:101290000FB60F9211242F933F934F935F936F9349
:1012A0007F938F939F93AF93BF93EF93FF9340915F
:1012B000C600E0913002F0913102CF01019660E862
:1012C00070E00E94540C9C01809132029091330294
:1012D0002817390739F0E055FE4F4083309331022B
:1012E00020933002FF91EF91BF91AF919F918F9129
:1012F0007F916F915F914F913F912F910F900FBE12
:101300000F901F9018955F926F927F928F929F928D
:10131000AF92BF92CF92DF92EF92FF920F931F9303
:10132000CF93DF93EC013A014B01413482E458073B
:101330008FE0680780E078070CF07FC060E874E811
:101340008EE190E0A40193010E94890C215030406D
:1013500040405040CA01B90122E030E040E050E096
:101360000E94890C59016A01A601950120953095CA
:101370004095509594E0220F331F441F551F9A95B6
:10138000D1F760E074E284EF90E00E94890CCA011A
:10139000B9012FEF30E040E050E00E94350CA4018D
:1013A00093010E94890CC90181509F4F181619069C
:1013B0001CF4522E5A9403C055245394521A60E0E0
:1013C00079E08DE390E0A40193010E94890C215003
:1013D000304040405040CA01B90122E030E040E0D6
:1013E00050E00E94890C209530954095509583E0FF
:1013F000220F331F441F551F8A95D1F760E074E216
:1014000084EF90E00E94890CCA01B9012FEF30E00F
:1014100040E050E00E94350CA40193010E94890C29
:10142000C90181509F4F181619061CF4822F815054
:1014300002C081E0821B851500F5E885F98581E011
:1014400090E00A8802C0880F991F0A94E2F780830F
:1014500060E079E08DE390E0A40193010E94890CA3
:101460002150304040405040CA01B90122E030E0F4
:1014700040E050E00E94890C04C0E885F9851082A4
:101480009501EC81FD813083EE81FF812083EA8527
:10149000FB85208141E050E0CA010E8402C0880F24
:1014A000991F0A94E2F7282B2083EA85FB85208187
:1014B000CA010F8402C0880F991F0A94E2F7282BF3
:1014C0002083EA85FB858081088802C0440F551F70
:1014D0000A94E2F7842B8083DF91CF911F910F91C3
:1014E000FF90EF90DF90CF90BF90AF909F908F9044
:1014F0007F906F905F900895FC01A085B185218950
:101500008C9190E0022E02C0959587950A94E2F79F
:1015100080FFF6CF0484F585E02D6083089586E68C
:1015200091E0909335028093340280EB91E09093A8
:1015300037028093360285EC90E0909339028093D5
:10154000380284EC90E090933B0280933A0280EC66
:1015500090E090933D0280933C0281EC90E0909368
:101560003F0280933E0286EC90E09093410280938C
:10157000400284E08093420283E08093430287E04C
:101580008093440285E08093450281E08093460287
:1015900008950F931F93CF93DF938C01EB0109C044
:1015A0002196D801ED91FC910190F081E02DC801C8
:1015B000099568816623A1F7DF91CF911F910F9163
:1015C0000895EF92FF920F931F93CF93DF938C01B7
:1015D0007B01EA010CC0D7016D917D01D801ED912D
:1015E000FC910190F081E02DC80109952197209789
:1015F00091F7DF91CF911F910F91FF90EF90089598
:10160000DC01ED91FC910190F081E02D09950895A8
:10161000DC01ED91FC910280F381E02D09950895A4
:101620002F923F924F925F926F927F928F929F92F2
:10163000AF92BF92CF92DF92EF92FF920F931F93E0
:10164000DF93CF93CDB7DEB7A0970FB6F894DEBF88
:101650000FBECDBF1C016A017B014115510561051B
:10166000710549F4DC01ED91FC910190F081E02DD0
:1016700060E3099554C0882499245401422E5524CE
:101680006624772401E010E00C0F1D1F080D191DC2
:10169000C701B601A30192010E94670CF8016083A3
:1016A0000894811C911CA11CB11CC701B601A301A7
:1016B00092010E94670CC901DA016C017D01C1141D
:1016C000D104E104F104F1F681E0E82EF12CEC0EF6
:1016D000FD1EE80CF91C3E010894611C711CD5012B
:1016E000C4010197A109B1096C01C818D90814C037
:1016F000F601EE0DFF1D60816A3010F4605D01C0DF
:10170000695CD101ED91FC910190F081E02DC10166
:1017100009950894E108F1086E147F0449F7A09632
:101720000FB6F894DEBF0FBECDBFCF91DF911F91F2
:101730000F91FF90EF90DF90CF90BF90AF909F9070
:101740008F907F906F905F904F903F902F90089573
:10175000EF92FF920F931F93CF93DF93EC017A01E7
:101760008B0177FF0FC0E881F9810190F081E02DB6
:101770006DE2099510950095F094E094E11CF11C40
:10178000011D111DCE01B801A7012AE00E94100B16
:10179000DF91CF911F910F91FF90EF900895AB01D2
:1017A000662757FD6095762F0E94A80B0895DC01EF
:1017B0002115310541F4ED91FC910190F081E02D6E
:1017C000642F099508952A30310519F40E94A80B59
:1017D00008950E94100B08952F923F924F925F92AE
:1017E0006F927F928F929F92AF92BF92CF92DF9231
:1017F000EF92FF920F931F93DF93CF93CDB7DEB796
:101800003B014C0119012A016D897E898F89988DD0
:101810006A197B098C099D09621A730A840A950A60
:10182000A40193010E94350CE218F308040915097C
:10183000A80197010E94890C2A0D3B1D4C1D5D1DBE
:10184000B901CA01CF91DF911F910F91FF90EF90E5
:10185000DF90CF90BF90AF909F908F907F906F90D0
:101860005F904F903F902F900895629FD001739F9B
:10187000F001829FE00DF11D649FE00DF11D929F2C
:10188000F00D839FF00D749FF00D659FF00D99276B
:10189000729FB00DE11DF91F639FB00DE11DF91F8F
:1018A000BD01CF011124089597FB092E07260AD008
:1018B00077FD04D049D006D000201AF470956195C8
:1018C0007F4F0895F6F7909581959F4F0895A1E277
:1018D0001A2EAA1BBB1BFD010DC0AA1FBB1FEE1FAA
:1018E000FF1FA217B307E407F50720F0A21BB30BF5
:1018F000E40BF50B661F771F881F991F1A9469F771
:1019000060957095809590959B01AC01BD01CF01CC
:10191000089597FB092E05260ED057FD04D0D7DF7A
:101920000AD0001C38F450954095309521953F4FD2
:101930004F4F5F4F0895F6F790958095709561959C
:101940007F4F8F4F9F4F0895AA1BBB1B51E107C0CC
:10195000AA1FBB1FA617B70710F0A61BB70B881F3F
:10196000991F5A95A9F780959095BC01CD010895CE
:10197000EE0FFF1F0590F491E02D0994F894FFCF2E
:1019800009000D0A00626567696E6E696E67206303
:10199000616C6962726174696F6E00656E64206368
:1019A000616C696274726174696F6E0046696E6918
:1019B000736865642073657475700A0020004B02BB
:1019C00000000D00060005000700080002000400EA
:1019D0007F00FE007F00FE0003007C0082007C0090
:0C19E0008200000000007C0AC90AE10A35
:00000001FF
